:020000040800F2
:100000000007002019050008950100089701000865
:100010009B0100089F010008A301000800000000E8
:10002000000000000000000000000000A701000820
:10003000A901000800000000AB010008AD010008A4
:1000400033050008330500083305000833050008B0
:10005000330500083305000833050008B7230008FE
:100060003305000833050008330500083305000890
:100070003305000833050008330500083305000880
:100080003305000833050008330500083305000870
:100090003305000833050008330500083305000860
:1000A00033050008852400083305000833050008DF
:1000B0009F23000833050008872300083305000844
:1000C0003305000833050008330500083305000830
:1000D0003305000833050008330500083305000820
:1000E00033050008330500083305000800F002F866
:1000F00000F03AF80AA090E8000C82448344AAF188
:100100000107DA4501D100F02FF8AFF2090EBAE885
:100110000F0013F0010F18BFFB1A43F0010318473B
:10012000642C0000842C0000103A24BF78C878C1E9
:10013000FAD8520724BF30C830C144BF04680C60ED
:10014000704700000023002400250026103A28BF35
:1001500078C1FBD8520728BF30C148BF0B60704739
:100160001FB51FBD10B510BD02F001FB1146FFF712
:10017000F7FF00F06CF902F01FFB03B4FFF7F2FF8A
:1001800003BC01F03BFF000030BF72B662B680F3E3
:1001900008887047704700BFFEE700BFFEE700BF5A
:1001A000FEE700BFFEE770477047704770470000EA
:1001B0000CB50020019000906C48006840F480303D
:1001C0006A49086000BF6948006800F40030009088
:1001D0000198401C0190009818B90198B0F5A06FE3
:1001E000F1D16248006800F4003010B101200090A5
:1001F00001E0002000900098012843D15C4800688D
:1002000040F010005A4908600846006820F00300DA
:1002100008600846006840F00200086053484068E3
:10022000524948600846406848600846406840F4C3
:10023000806048600846406820F47C1048600846AA
:10024000406840F4E81048600846006840F080705C
:10025000086000BF4548006800F000700028F9D031
:100260004248406820F00300404948600846406822
:1002700040F00200486000BF3C48406800F00C00BD
:100280000828F9D10CBD10B5FFF792FF10BD10B5CD
:100290003648006840F0010034490860084640686C
:1002A00034490840314948600846006832490840EE
:1002B0002E4908600846006820F48020086008463F
:1002C000406820F4FE0048604FF41F008860FFF78C
:1002D000DAFF4FF000602949086010BD10B5002119
:1002E00000200022214B5B6803F00C0121B104299E
:1002F00006D0082928D107E0214B224C236027E0B3
:100300001F4B204C236023E0184B5B6803F47010F4
:10031000164B5B6803F48032022303EB904022B952
:10032000194B4343174C23600DE0104B5B6803F4FB
:10033000003323B1144B4343124C236003E0104BB2
:100340004343104C236003E00D4B0E4C236000BF71
:1003500000BF064B5B68C3F303130C4CE15C094B15
:100360001B68CB40074C236010BD0000001002400A
:10037000002002400000FFF8FFFFF6FE08ED00E05D
:1003800000127A000000002000093D000400002057
:100390005748806940F00800554988615548006811
:1003A00080B25449086008460068534908435149DF
:1003B0000860704700B503460A46FFF7E9FF4C485E
:1003C000C06940F002004A49C8610846806940F0AF
:1003D000080088614748001F006820F0FF00454979
:1003E000091F08600846006840F0BB0008604348E9
:1003F0000380001F028041481038008840F4C0404C
:100400003E49103908800846008840F060000880A6
:100410000846008840F4006008800846008840F0E4
:1004200008000880081D008840F48050091D0880DD
:100430000846008840F480700880C8132F492C3982
:1004400008800846008840F00100088000BD2C4E5E
:1004500000BF01F00BFC4FF4FA31482001F0E8FD39
:10046000002140F60F60FFF7A5FF0020234914315B
:1004700008802449086001202349C1F8B40101F033
:1004800079FE41F61F41632001F036FE2FE0641C27
:10049000502C04D14FF47A701C49086009E0A02C5C
:1004A00007D1C820194908600024002013491431DD
:1004B000088001201649087000BF15480078002800
:1004C000FBD1144800680A2190FBF1F7384602F08E
:1004D000E1FA05460D4800680A2190FBF1F738461D
:1004E00002F0D8FA06463146284602F0CAF8CEE7AE
:1004F00000100240040C0140000022222C040040A5
:1005000000001643B08121420080214224000020D7
:100510001A0000201C0000200948804709480047B5
:10052000FEE7FEE7FEE7FEE7FEE7FEE7FEE7FEE7A3
:10053000FEE7FEE704480549054A064B7047000000
:100540008F020008ED0000080001002000070020D5
:10055000000300200003002031490143314A1160AB
:10056000704770B5002100230F22C47804B32D4CCE
:10057000246804F4E064C4F5E064210AC1F10403D2
:10058000CA40447804FA03F18478144021430901F5
:10059000254C0678A155047804F01F050124AC40D1
:1005A00005786D11AD0005F1E025C5F8004109E0C1
:1005B000047804F01F050124AC401C4D0678761128
:1005C00045F8264070BD1A4A0A400243154B1B1FCE
:1005D0001A60704739B1134A121D12680243114B59
:1005E0001B1D1A6006E00F4A121D126882430D4B54
:1005F0001B1D1A607047042808D14FF0E0210969DB
:1006000041F004014FF0E022116107E04FF0E021DA
:10061000096921F004014FF0E022116170470000E8
:100620000000FA050CED00E000E400E080E100E0ED
:1006300080FFFF1F002044490860091D0860091D54
:100640000860091D086041483F491431086070473F
:1006500000213D498279002A3AD00A46126803688F
:100660009A430B461A600A1D126803689A430B1DD1
:100670001A60027911440A6803681A430A60324A10
:100680000832126803689A432F4B08331A601A1D08
:10069000126803689A432C4B0C331A604279102A73
:1006A0000ED11A1F126803681A43274B08331A60C9
:1006B0001A1D126803681A43234B0C331A600DE0AD
:1006C0002149427911440A6803681A430A6005E027
:1006D000027911440A6803689A430A60704700214E
:1006E000016001710C21417100218171704716492F
:1006F000103109680143144A1032116070470146F5
:100700000020114A143212680A400AB1012000E0A8
:10071000002070470C4914310860704701460020E2
:100720000022094B1B6803EA0102074B14331B68C4
:100730000B4013B10AB1012000E0002070470249CC
:10074000143108607047000000040140FFFF0F00F3
:1007500010B50446CC48844208D10121042000F0A1
:100760002DFB0021042000F029FB46E0C74884420D
:1007700008D10121082000F021FB0021082000F011
:100780001DFB3AE0C248844208D10121102000F04C
:1007900015FB0021102000F011FB2EE0BD48844223
:1007A00008D10121202000F009FB0021202000F0C9
:1007B00005FB22E0B848844208D10121402000F026
:1007C000FDFA0021402000F0F9FA16E0B348844217
:1007D00008D10121802000F0F1FA0021802000F0F2
:1007E000EDFA0AE0AE48844207D10121801500F0FD
:1007F000E5FA0021A01500F0E1FA10BD10B50121C5
:10080000084600F0DBFA0021012000F0D7FA10BD05
:100810002DE9F04102460025002600200023002497
:10082000002791F803C00CF00F0591F803C00CF0FD
:10083000100CBCF1000F03D091F802C04CEA050582
:1008400091F800C0BCF1000F31D0146800202BE0FB
:100850004FF0010C0CFA00F3B1F800C00CEA0306EB
:100860009E4220D183004FF00F0C0CFA03F7BC43DB
:1008700005FA03FC4CEA040491F803C0BCF1280F0C
:1008800006D14FF0010C0CFA00FCC2F814C00AE0CB
:1008900091F803C0BCF1480F05D14FF0010C0CFAE0
:1008A00000FCC2F810C0401C0828D1D31460B1F875
:1008B00000C0BCF1FF0F34DD546800202EE000F1D1
:1008C000080C4FF0010808FA0CF3B1F800C00CEA6C
:1008D00003069E4221D183004FF00F0C0CFA03F760
:1008E000BC4305FA03FC4CEA040491F803C0BCF1D4
:1008F000280F05D100F1080C08FA0CF8C2F8148092
:1009000091F803C0BCF1480F07D100F1080C4FF07B
:10091000010808FA0CF8C2F81080401C0828CED351
:100920005460BDE8F0814FF6FF71018002218170B3
:100930000421C17070470246002093680B400BB140
:10094000012000E0002070470146886880B27047AF
:1009500002460020D3680B400BB1012000E00020CC
:1009600070470146C86880B27047016170474161B5
:1009700070470AB1016100E041617047C160704792
:100980004FF480320A4382618161826182698269A7
:10099000704702460020434B18684FF6807318409A
:1009A00040EA021008433F4B186070473E49C86157
:1009B0007047F0B50A46002300240021002500F00E
:1009C0000046B6F1004F02D1364EF16901E0354ED6
:1009D0007168C0F3034583B200F44016B6F5401FBA
:1009E00008D121F070612F4E766826F070662D4F89
:1009F0007E6012E000F48016B6F5801F06D1032653
:100A000006FA05F4A14341F0706106E0460D360197
:100A100003FA06F6B14341F0706122B1460D36018A
:100A200003FA06F6314300F00046B6F1004F02D15A
:100A30001C4EF16101E01B4E7160F0BD30B500222B
:100A40008B071C0F0F2303FA04F2164B08338C108C
:100A500053F824309343134C08348D1044F8253058
:100A600023468C1053F824308C07240F00FA04F42A
:100A700023430C4C08348D1044F8253030BD0A490E
:100A8000DC3108607047000000080140000C0140A4
:100A9000001001400014014000180140001C0140FA
:100AA000002001400000014000002042DF480068B3
:100AB00040F00100DD49086008464068DC49084014
:100AC000DA49486008460068DA490840D7490860B2
:100AD0000846006820F4802008600846406820F43A
:100AE000FE0048604FF41F0088607047CF490968D6
:100AF00021F48031CD4A11601146096821F480212A
:100B00001160B0F5803F03D0B0F5802F0ED106E024
:100B1000C649096841F48031C44A116007E0C349FD
:100B2000096841F4A021C14A116000E000BF00BF84
:100B3000704710B501460022002300204A11012A07
:100B400002D1BA4C236806E0022A02D1B74C236ACC
:100B500001E0B64C636A01F01F02012494401C407E
:100B60000CB1012000E0002010BD38B5002000903D
:100B70000024002500BF3120FFF7DBFF0546009869
:100B8000401C00900098B0F5A06F01D0002DF2D06D
:100B90003120FFF7CEFF08B1012400E000242046F9
:100BA00038BD01460020A14A106820F0F80040EA54
:100BB000C10010607047A0490860704702460020DD
:100BC0009A4B586820F47C1042EA01031843974B73
:100BD0005860704798490866704701460020934A5C
:100BE000506820F003000843506070478F48406809
:100BF00000F00C007047014600208C4A506820F03D
:100C0000F00008435060704701460020874A506852
:100C100020F4E06008435060704701460020834A9A
:100C2000506820F4605040EAC1005060704729B11C
:100C30007E4A527A02437D4B5A7204E07B4A527AD2
:100C400082437A4B5A7270477B49D83108607047AB
:100C500001460020754A506820F440400843506027
:100C600070470021714A20321170704A82F82010BA
:100C7000012802D004280AD104E001216B4A203265
:100C8000117005E00521694A2032117000E000BFB3
:100C900000BF70476949086070476449096A0143A9
:100CA000624A11627047654944390860704730B53F
:100CB00000210022002400235C4D6D6805F00C012A
:100CC00021B1042905D0082923D105E05C4D056038
:100CD00022E05B4D05601FE0544D6D6805F4701215
:100CE000524D6D6805F48034022505EB92421CB923
:100CF000544D554305600BE04C4D6D6805F40035CF
:100D00001DB1504D5543056002E04D4D5543056002
:100D100002E04B4D056000BF00BF444D6D6805F01B
:100D2000F0010909484D6B5C0568DD4045603F4DA9
:100D30006D6805F4E061090A434D6B5C4568DD4070
:100D400085603A4D6D6805F46051C90A3E4D6B5C93
:100D50004568DD40C560354D6D6805F44041890B3F
:100D60003A4D6B5CC568B5FBF3F5056130BD29B143
:100D70002E4A526902432D4B5A6104E02B4A5269B4
:100D800082432A4B5A61704729B1284A926902432B
:100D9000264B9A6104E0254A92698243234B9A616B
:100DA000704729B1214AD2690243204BDA6104E03D
:100DB0001E4AD26982431D4BDA61704729B11B4A32
:100DC000D2680243194BDA6004E0184AD2688243C1
:100DD000164BDA60704729B1144A12690243134B6B
:100DE0001A6104E0114A12698243104B1A6170477C
:100DF00012494039086070470F49C86470470B4971
:100E0000C87170470948406A40F0807007494862DD
:100E1000704701460020054A92680A400AB1012045
:100E200000E00020704701498872704700100240BE
:100E30000000FFF8FFFFF6FE00004242800442423D
:100E400000127A0000093D00400000205000002000
:100E500010B50446FE48844208D10121C014FFF7B2
:100E6000ADFF0021E014FFF7A9FFC4E0B4F1804F0B
:100E700008D101210846FFF7AEFF00210120FFF74E
:100E8000AAFFB8E0F348844208D101210220FFF70D
:100E9000A2FF00210220FFF79EFFACE0EE48844253
:100EA00008D101210420FFF796FF00210420FFF75D
:100EB00092FFA0E0E948844208D101210820FFF711
:100EC0008AFF00210820FFF786FF94E0E44884426F
:100ED00008D101211020FFF77EFF00211020FFF72D
:100EE0007AFF88E0DF48844208D101212020FFF703
:100EF00072FF00212020FFF76EFF7CE0DA48844279
:100F000008D101214014FFF759FF00216014FFF7B9
:100F100055FF70E0D548844209D10121C804FFF78C
:100F20004DFF00214FF40020FFF748FF63E0D04859
:100F3000844209D101210805FFF740FF00214FF449
:100F40008010FFF73BFF56E0CA48844209D10121D7
:100F50004805FFF733FF00214FF40010FFF72EFF85
:100F600049E0C548844208D101214020FFF733FF02
:100F700000214020FFF72FFF3DE0C048844208D108
:100F800001218020FFF727FF00218020FFF723FFAA
:100F900031E0BB48844208D101218015FFF71BFFD7
:100FA0000021A015FFF717FF25E0B648844209D1BC
:100FB00001210804FFF702FF00214FF48030FFF702
:100FC000FDFE18E0B048844209D101214804FFF732
:100FD000F5FE00214FF40030FFF7F0FE0BE0AB48C8
:100FE000844208D101218804FFF7E8FE00214FF474
:100FF0008020FFF7E3FE10BD00220288944B984248
:101000000ED0994B98420BD0B0F1804F08D0914B45
:10101000984205D0904B984202D0904B984204D110
:101020004FF68F731A404B881A438D4B984207D066
:101030008C4B984204D04FF6FF431A40CB881A439A
:1010400002808B8883850B880385814B98420BD067
:10105000854B984208D08B4B984205D08A4B9842DA
:1010600002D08A4B984201D10B7A038601238382F6
:10107000704770B5002400220023058C4FF6FE76E1
:1010800035400584028C8388048B4FF68F752C4085
:10109000B51E2C400D882C43751E2A400D892A430D
:1010A0004D882A436A4DA8420BD06F4DA84208D004
:1010B000744DA84205D0744DA84202D0734DA84289
:1010C00013D14FF6F7752A404D892A434FF6FB7529
:1010D0002A408D882A434FF6FF652B404FF6FF5577
:1010E0002B408D892B43CD892B4383800483CD886E
:1010F0008586028470BD70B5002400220023058C13
:101100004FF6EF7635400584028C8388048B48F6D1
:10111000FF752C404FF6FF452C400D884FF6FF76AB
:1011200006EA05252C434FF6DF752A400D8906EAAD
:1011300005152A434D8806EA05152A43444DA84261
:1011400002D0494DA8421DD14FF67F752A404D89E6
:101150004FF6FF7606EA05152A434FF6BF752A407B
:101160008D8806EA05152A434FF6FF352B404FF2CE
:10117000FF752B408D8906EA85052B43CD8906EA4C
:1011800085052B4383800483CD880587028470BD49
:1011900070B5002400220023058C4FF6FF66354011
:1011A0000584028C8388848B4FF68F752C404FF614
:1011B000FC752C400D882C434FF6FF552A400D89B5
:1011C0004FF6FF7606EA05252A434D8806EA0525EF
:1011D0002A431F4DA84202D0234DA8421DD14FF2F1
:1011E000FF752A404D894FF6FF7606EA05252A430A
:1011F0004FF6FF352A408D8806EA05252A434EF62C
:10120000FF752B404DF6FF752B408D8906EA0515BD
:101210002B43CD8906EA05152B4383808483CD8833
:101220008587028470BD70B5002200230024058CE0
:101230004EF6FF7635400584038C8488828B48F611
:10124000FF752A404FF6FF452A400D8820E0000038
:10125000002C01400004004000080040000C004049
:10126000001000400014004000340140004C0140D8
:10127000005001400054014000180040001C004094
:10128000002000400040014000440140004801406F
:101290004FF6FF7606EA05252A434DF6FF752B40EB
:1012A0000D8906EA05352B434D8806EA05352B43A3
:1012B000FA4DA84202D0FA4DA84208D14BF6FF756C
:1012C0002C408D894FF6FF7606EA85152C438480E5
:1012D0008283CD88A0F84050038470BD828B4FF28A
:1012E000FF331A408283828B4FF6FF7303EA012398
:1012F0001A4382837047F0B50C4615460022002140
:101300000026078C4EF6FF7C07EA0C070784828BC9
:10131000018C4FF6FF7707EA043640F6FF473A4064
:101320004FF6FF7707EA05273A434FF6FF7707EABC
:1013300003373A43D94FB8420ED0D94FB8420BD0F9
:10134000B0F1804F08D0D74FB84205D0D64FB84241
:1013500002D0D64FB84206D14DF6FF77394046F459
:101360008057394305E047F6FF57394044F480572A
:10137000394382830184F0BD828B4FF6F3731A40A8
:101380008283828B0A4382837047F0B50C461546F0
:10139000002200210026078C4FF6FF6C07EA0C079D
:1013A0000784828B018C4FF6FF7707EA04264FF6FD
:1013B0000C773A404FF6FF7707EA03172F433A437B
:1013C000B64FB8420ED0B64FB8420BD0B0F1804FF6
:1013D00008D0B44FB84205D0B34FB84202D0B34F93
:1013E000B84206D14FF6FF57394046F4807739436B
:1013F00005E04FF2FF57394044F480773943828348
:101400000184F0BD028B4FF2FF331A400283028B3E
:101410004FF6FF7303EA01231A4302837047F0B5C6
:101420000C461546002200210026078C4FF6EF7C63
:1014300007EA0C070784028B018C4FF6FF7707EA57
:10144000041640F6FF473A404FF6FF7707EA0337A6
:101450003A434FF6FF7707EA05273A438F4FB842E2
:101460000ED08F4FB8420BD0B0F1804F08D08D4FC7
:10147000B84205D08C4FB84202D08C4FB84206D14A
:101480004FF6DF77394046F01007394305E04FF655
:101490005F77394044F01007394302830184F0BD7F
:1014A000028B4FF6F3731A400283028B0A430283C6
:1014B0007047F0B50C46154600220021068C4FF609
:1014C000FE773E400684028B018C4FF60C7632404C
:1014D0007E1C06EA03162E433243704EB0420ED0F5
:1014E0006F4EB0420BD0B0F1804F08D06D4EB0427D
:1014F00005D06D4EB04202D06C4EB04206D14FF6D0
:10150000FD76314044F00106314305E04FF6F576B3
:10151000314044F00106314302830184F0BD70B5CF
:1015200005460C465D4885420ED05D4885420BD08D
:10153000B5F1804F08D05B48854205D05A488542B6
:1015400002D05A48854200D100E000BF208850B93F
:101550002389A28861882846FFF7ABFFE1882846E7
:10156000FFF79EFF25E0208804280AD12389A2885E
:1015700061882846FFF753FFE1882846FFF742FFBE
:1015800017E0208808280AD12389A2886188284684
:10159000FFF7FBFEE1882846FFF7EEFE09E023890E
:1015A000A28861882846FFF7A6FEE1882846FFF753
:1015B00095FE70BD2DE9F04105460C460026012739
:1015C000608808B9022600E00026A088012801D121
:1015D000022700E001272088A0B92389A28861881A
:1015E0002846FFF766FFE1882846FFF759FF238961
:1015F0003A4631462846FFF712FFE1882846FFF7B2
:1016000001FF13E02389A28861882846FFF707FFBE
:10161000E1882846FFF7F6FE23893A4631462846F8
:10162000FFF747FFE1882846FFF73AFFBDE8F08162
:101630000A884B881A438B881A43CB881A430B8934
:101640001A434B891A438B891A43A0F844207047E8
:101650004FF6FF71818000210180C18041800172BD
:1016600070470021018041808180C18001814181DA
:101670008181C181704700210180418001218180E9
:101680000021C1800181704700210180418081805B
:10169000C18001814181818170470000002C01409F
:1016A000003401400004004000080040000C0040ED
:1016B00021B1028842F00102028004E002884FF664
:1016C000FE731A400280704731B1B0F8442042F4F2
:1016D0000042A0F8442005E0B0F84420C2F30E0216
:1016E000A0F8442070471AB183890B43838102E03C
:1016F00083898B43838170478182704741EA02036B
:10170000A0F8483070471AB183890B43838102E007
:1017100083898B438381704701894FF6F8721140AA
:10172000018170470A46002101894FF68F731940E5
:1017300011430181704730B504460D4629462046C5
:10174000FFF7F0FF208940F00700208130BD2DE930
:10175000F04104460D4616461F46602D06D13B4615
:10176000012231462046FFF75AFE05E03B460122A2
:1017700031462046FFF79DFE29462046FFF7D2FF5F
:10178000208940F007002081BDE8F08130B50C468B
:1017900000210189C9B24FF6FF7505EA03251543FB
:1017A00025432943018130BD2DE9F04105460E4610
:1017B00017469846002443463A4631462846FFF7E6
:1017C000E5FF2C894FF6F870044044F007044FF60B
:1017D0008F70044044F070042C81BDE8F081F0B5B6
:1017E00004460D4616461F463B46324629462046CD
:1017F000FFF7CCFF208940F480402081F0BD0185B7
:10180000828270470A46002101884FF68F73194083
:10181000114301807047F0B50C4615461E46002165
:10182000002200230189028B038C4FF6F8773940A0
:1018300021434FF6FC473A4040F201173A434FF636
:10184000DD773B404FF6FF7707EA06172F433B4310
:10185000018102830384F0BD0A460021018B4FF60B
:101860008F7319401143018370470A460021018B91
:1018700048F6FF7319404FF6FF7303EA022319433A
:10188000018370470A460021818B4FF68F73194000
:101890001143818370470A460021818B48F6FF730C
:1018A00019404FF6FF7303EA0223194381837047FF
:1018B00021B1028842F08002028004E002884FF6E3
:1018C0007F731A400280704721B1828842F004027F
:1018D000828004E082884FF6FB731A408280704752
:1018E00021B1828842F00802828004E082884FF6AB
:1018F000F7731A408280704721B1828842F001025A
:10190000828004E082884FF6FE731A40828070471E
:101910000A460021018B4FF6F773194011430183EA
:1019200070470A460021018B4FF2FF7319404FF6B2
:10193000FF7303EA02231943018370470A4600211B
:10194000818B4FF6F77319401143818370470A4624
:101950000021818B4FF2FF7319404FF6FF7303EAAA
:1019600002231943818370470A460021018B4FF6F9
:10197000FB7319401143018370470A460021018B14
:101980004FF6FF3319404FF6FF7303EA0223194362
:10199000018370470A460021818B4FF6FB73194083
:1019A0001143818370470A460021818B4FF6FF3334
:1019B00019404FF6FF7303EA0223194381837047EE
:1019C0000A460021018B4FF67F73194011430183B2
:1019D00070470A460021018BC1F30E014FF6FF73D9
:1019E00003EA02231943018370470A460021818BD1
:1019F0004FF67F7319401143818370470A460021D7
:101A0000818BC1F30E014FF6FF7303EA02231943E2
:101A1000818370470A460021018C4FF6FD731940FF
:101A20001143018470470A460021018C4FF6F77379
:101A300019401143018470470A460021018C4FF67A
:101A4000DF7319404FF6FF7303EA02131943018451
:101A500070470A460021018C4FF67F7319404FF6FC
:101A6000FF7303EA02131943018470470A460021F9
:101A7000018C4FF6FF5319404FF6FF7303EA022320
:101A80001943018470470A460021018C4FF2FF730D
:101A900019404FF6FF7303EA02231943018470478C
:101AA0000A460021018C4DF6FF7319404FF6FF7373
:101AB00003EA023319430184704730B5002301243F
:101AC0008C40A3B2048C9C430484048C02FA01F57C
:101AD000ADB22C43048430BD30B5002304248C40C7
:101AE000A3B2048C9C430484048C02FA01F5ADB2C9
:101AF0002C43048430BD70B50346002000241846F2
:101B0000183001258D40ACB21D8CA5431D8409B150
:101B1000082909D100EB6100056825F07005056012
:101B20000568154305600EE00D1FC5F34E052844FA
:101B3000056825F4E045056005684FF6FF7606EA7E
:101B400002263543056070BD21B1028842F00202D1
:101B5000028004E002884FF6FD731A40028070474D
:101B600021B1028842F00402028004E002884FF6AC
:101B7000FB731A400280704721B1828842F08002D4
:101B8000828004E082884FF67F731A40828070471B
:101B900002884FF6F7731A40028002880A430280D7
:101BA000704782884FF68F731A40828082880A437A
:101BB0008280704702894FF6F8731A4002810289C9
:101BC0000A430281704702894FF67F731A400281EF
:101BD00002890A430281704781847047818570477A
:101BE000818670470187704781877047A0F8401051
:101BF000704702884FF6FF431A40028002880A436A
:101C0000028070470146888E70470146088F7047F2
:101C10000146888F70470146B1F840007047014681
:101C2000888C70470146088D704702460020138A51
:101C30000B400BB1012000E000207047CA43028234
:101C4000704730B50246002000230024158A05EABB
:101C50000103958905EA010413B10CB1012000E0EC
:101C6000002030BDCA4302827047000010B56FF0FB
:101C70000400FEF7C0FC2E4800682E49B0FBF1F0CE
:101C80002D4908700846007800EB4001C1EBC010F8
:101C90004FF6FF7101EAC0002849088010BD0146D7
:101CA000254A12784A434FF0E0235A6100229A6194
:101CB0001A46126942F001021A6100BF4FF0E02299
:101CC000106900F001021AB100F48032002AF5D048
:101CD0004FF0E022126922F001024FF0E0231A6176
:101CE00000229A6170470146144A12884A434FF015
:101CF000E0235A6100229A611A46126942F00102F9
:101D00001A6100BF4FF0E022106900F001021AB121
:101D100000F48032002AF5D04FF0E022126922F060
:101D200001024FF0E0231A6100229A61704700001F
:101D30000000002000127A0054000020560000200D
:101D4000A34A0A400243A34B1A6070470146072387
:101D500023EA010212029F4B1B1D18684FF6FF0376
:101D600018409D4B184310439A4B1B1D1860704739
:101D70002DE9F0410746884614461D462846FFF7E0
:101D8000E5FFC5F1040007FA00F60F20284100EA3C
:101D90000800064306F00F06E21704EBD262521168
:101DA000920002F1E022D2F800212146E31704EB71
:101DB000D3635B11A4EB431C012303FA0CF31A4316
:101DC0002046E31704EBD3635B119B0003F1E02390
:101DD000C3F800218148005D40EA06107F4908559C
:101DE000BDE8F08170B504460B46CE1701EB967640
:101DF000C6F38700CE1701EB9676B610A1EB8606E8
:101E0000B606350E764B9B6943F00103744EB36101
:101E10004FEAB63353F820300F26AE40B343714E2D
:101E200046F82030334653F8203004FA05F61E43B6
:101E30006C4B43F820606C4B1B6801268E4033438B
:101E4000694E336002F0010343B1674B0C331B68EA
:101E500001268E403343644E0C36336002F0020399
:101E600043B1614B08331E6801238B401E435E4B18
:101E700008331E6070BD00B5002059490861C86074
:101E80001420486100208861C8610846006840F05D
:101E900001000860084640685449084050494860BD
:101EA00008460068524908404D49086008460068E5
:101EB00020F4802008600846406820F4FE00486056
:101EC0000020886000214FF00060FFF739FF00BD5F
:101ED00010B540480830006840F004003D49083122
:101EE00008603F48C06940F080503D49C8614148A2
:101EF000406840F480703F4948600846006840F000
:101F0000040008600846006840F002000860FEF720
:101F10003BF910BD3048001D2E49091D086070476F
:101F2000014649062E4A926942F001022C4B9A6101
:101F30002C4A083A526822F0E0622A4B083B5A6069
:101F40001A4652680A435A60704730B50446002565
:101F5000FFF791FF2248006840F480302049086074
:101F600000BF1F480068400C0028FAD04FF4806082
:101F70001B494860A01EC4B20846406840EA84403D
:101F800048600846406840F4803048601A4800685D
:101F900040F03200184908601148006840F0807035
:101FA0000F49086000BF0E480068400E0028FAD0B4
:101FB0000B48406840F002000949486005E00848C5
:101FC0004068C0F3870505F00305022DF7D130BD49
:101FD00080FFFF1F08ED00E00000FA0500E400E0CC
:101FE0000010024008000140000401400000FFF81A
:101FF000FFFFF6FE0070004000200240014600BFD7
:10200000704700BF384A128802F04002002AF9D017
:10201000C2B2354B1B1D1A8070473349091D088019
:1020200000BF3149098801F040010029F9D070470B
:102030002DE9F05F05460E46300100F043FD814674
:102040002A4905FB01F000F03DFD8246494600F0BB
:1020500023FC0746384600F0FDFC84B2204600F021
:1020600031FD8346394600F00DFE82464FF0834134
:1020700000F03CFD814600F0EDFC80464FF6FF701D
:1020800000EA041404EB080084B21948806940F0A7
:102090000400174988610846806940F480408861DF
:1020A0001448006820F47F60124908600846006800
:1020B00040F40B6008600E48C06840F480400C4952
:1020C000C8600846C06820F48040C86006480830F0
:1020D0000480001D008842F20C01084302490C31C3
:1020E0000880BDE8F09F00000038014040420F002A
:1020F000001002400408014070B505460C46134824
:10210000806940F400601149886111480580001F12
:1021100004800F482038008840F001000C49203925
:1021200008800846008840F04000088008482C38A5
:10213000008840F0010006492C390880022319224A
:1021400003210120FFF714FE70BD000000100240C3
:102150002C2C014008B501210420FEF715FE0220B9
:10216000ADF8000028208DF8030069469748FEF777
:102170004FFB08BD0EB5FFF7EDFF01210846FEF746
:1021800003FE02210420FEF759FC042001900020E8
:102190008DF808000C208DF8090001208DF80A0048
:1021A00001A8FEF755FA03210420FEF747FC08209A
:1021B000019001A8FEF74CFA04210846FEF73EFC08
:1021C0001020019001A8FEF743FA01210020FEF73C
:1021D00035FC0220019008208DF8090001A8FEF7C7
:1021E00037FA07208DF8000002208DF80100032047
:1021F0008DF8020001208DF803006846FEF7B1F962
:102200000EBD00B587B001210846FEF7CAFD0121C9
:102210000420FEF7B9FD0320ADF8000004208DF87E
:10222000030069466948FEF7F3FA04A8FFF710FABD
:102230000020ADF810004FF6FF70ADF8140000203C
:10224000ADF81600ADF8120004A94FF08040FEF77B
:10225000D3FE00231A4603214FF08040FFF7DBFA3C
:1022600001A8FFF708FA0A20ADF80C0001A9400701
:10227000FFF755F901218807FFF7E0FC012211461D
:102280009007FFF730FA00214FF08040FFF7A4FCE1
:1022900001218807FFF70CFA07B000BD00B587B031
:1022A00001210420FEF77DFD01210820FEF76CFDD1
:1022B000C020ADF8000004208DF8030069464448B2
:1022C000FEF7A6FA04A8FFF7C3F90020ADF8100046
:1022D0004FF6FF70ADF814000020ADF81600ADF811
:1022E000120004A93B48FEF787FE00231A4603218B
:1022F0003848FFF790FA01A8FFF7BDF90A20ADF8BA
:102300000C0001A93348FFF70AF901213148FFF712
:1023100095FC012211462F48FFF7E5F900212D48D1
:10232000FFF75AFC01212B48FFF7C2F907B000BDA7
:102330000146022904D003290BD0042919D10FE04A
:102340004FF08042928C10B200224FF080439A846A
:1023500011E0214A128810B200221F4B1A800AE0B5
:102360001C4A2432128810B200221A4B24331A80DD
:1023700001E0002000BF00BF704718490868002135
:10238000164A116070471348103000881148103009
:10239000008820F001000F491031088070474FF08D
:1023A0008040008A4FF08040008A20F001004FF00A
:1023B00080410882704710B508480068401C0749F2
:1023C00008600220FEF7BBF910BD000000080140C4
:1023D000000C014000080040240400405800002088
:1023E0000146002901DA484200E00846704700B57E
:1023F00002461046FFF7F4FF4149088000BD40F651
:10240000AC50404909684242914202DA41423D4A99
:1024100011603C490968814201DD3A490860704712
:102420002DE9F04704460D46601B00F033FB3649AA
:102430000860084601683548006800F057FB804690
:10244000334801683048006800F026FC8146314876
:102450000168484600F04AFB0746414600F0BAF9D9
:1024600006462D480168304600F0B4F92A49086054
:1024700025480068264908602748006800F0CEFA21
:10248000BDE8F08710B52548008800F0010000285D
:1024900033D02248008820F00100204908802048DD
:1024A000007801280BD11F480078401CC0B21D499C
:1024B0000870052803D100200870194908701A48CF
:1024C000007802280EDD012017490870FFF755FF3C
:1024D000164908601648016814480068FFF7A0FF15
:1024E0000849086010480078401C0F490870FFF741
:1024F00086FF04480068FFF77AFF002010BD000047
:10250000400400403C000020600000203800002013
:10251000680000203400002064000020102C0140DE
:102520001A000020190000205C0000201C00002080
:102530002400002030B503461C788C545D78541C70
:102540000D559D78941C0D55DD78D41C0D5530BD6E
:1025500013B50C460A2C00DC04B91CBD0B2C43D26D
:10256000DFE804F042060C12181E242A30363C0024
:10257000012276496846FFF7DDFF35E00522734901
:102580006846FFF7D7FF2FE0092270496846FFF73A
:10259000D1FF29E00D226D496846FFF7CBFF23E00C
:1025A00011226A496846FFF7C5FF1DE015226749F9
:1025B0006846FFF7BFFF17E0192264496846FFF736
:1025C000B9FF11E01D2261496846FFF7B3FF0BE038
:1025D00021225E496846FFF7ADFF05E025225B49F1
:1025E0006846FFF7A7FF00BF00BF00BFB5E7014681
:1025F0000A2900DC09B9002070472420534A1070D2
:102600000B293CD2DFE801F03B060B10151A1F2402
:10261000292F350005204D4A50710620ECE709208E
:102620004A4A50720A20E7E70D20484A50730E20AC
:10263000E2E71120454A50741220DDE71520434A95
:1026400050751620D8E71920404A50761A20D3E753
:102650001D203E4A50771E20CEE721203B4A82F8BB
:1026600021002220C8E72520384A82F825002620AC
:10267000C2E72920354A82F829002A20BCE7002039
:10268000BAE72DE9F04106460D4600240121304607
:10269000FFF75EFF02212846FFF75AFF2C4800682B
:1026A0000A2190FBF1F8404600F0F4F907460321B7
:1026B000FFF74EFF0320FFF79AFF2649087000BF7F
:1026C0000DE000BF2448008800F040000028F9D049
:1026D0001E48005D2049091D0880601CC4B21D48C9
:1026E00000788442EDDBBDE8F08170B500241B4822
:1026F000006800F0CFF905460121FFF729FF1848CF
:10270000006800F0C7F905460221FFF721FF032109
:102710000020FFF71DFF0320FFF769FF0D49087038
:1027200000BF0DE000BF0C48008800F0400000280A
:10273000F9D00648005D0849091D0880601CC4B234
:10274000044800788442EDDB70BD0000700000207A
:102750003C0000206C000020003801401C000020DC
:1027600024000020704770477047704770477546D7
:1027700000F02CF8AE4605006946534620F00700ED
:10278000854618B020B5FDF7D5FEBDE820404FF0D6
:1027900000064FF000074FF000084FF0000B21F04B
:1027A0000701AC46ACE8C009ACE8C009ACE8C00918
:1027B000ACE8C0098D46704710B50446AFF3008001
:1027C0002046BDE81040FDF7D8BC00000048704727
:1027D0009C00002090EA010F48BF81F0004100F109
:1027E0006282421A3CBF801A89184FEAD0524FF0D9
:1027F0007F4C1CEA410FA2EBD15318BF9CEA026F39
:1028000000F03B804FF0004C4CEA00204CEA0121E4
:1028100021FA03FC10EB0C0C1ED202F1FF325FEA2E
:102820001C2040EBC25038BF70471CF07F0F4FEAAE
:10283000400C18BFBCF17F4F38BF7047C3F1200375
:10284000994008BF20F00100BCF17F4F38BF7047AE
:10285000A0F1C04000F011BA4FEA3C00000A40EB82
:10286000C25028BF1CF0FF0F4FEA400CE6D018BF43
:10287000BCF17F4F38BF7047EAE79CEA026F05D092
:1028800010EA5C0F08BF00F00040704710B500F080
:10289000AEF900BF64FBBE3E4FF47F0C1CEAD012C1
:1028A0001EBF1CEAD11392EA0C0F93EA0C0F00F042
:1028B000858090EA010F48BF42F4807240F4000C1A
:1028C00041F400002CF07F4120F07F4000B58142B0
:1028D000A2EB03020FF2081CACEB504EC0F100005B
:1028E0009EF800E04FEA4E0E00FB0EFC38BF490098
:1028F0004FEA2C1C02F5FA020CFB0EF34FEACE1E37
:102900004FEA112C4FEAC1210EEB635E42EB2242EB
:102910000EFB0CFC4FEA1C5300FB03114FEA112C79
:102920004FEA01310EFB0CFC4FEADC4C00FB0C11B2
:10293000C14228BF09184CEB03335DF804EB10EBE0
:10294000410143EBC250B2F57C0F38BF704729D527
:1029500012F0F00F1CBF00F1C04000F000407047C3
:10296000008182838485868788898B8C8D8E8F9168
:102970009293959697999A9C9D9FA0A2A3A5A7A88C
:10298000AAACAEB0B2B3B5B7B9BCBEC0C2C5C7C9B8
:10299000CCCED1D4D7D9DCDFE2E6E9ECF0F3F7FA1C
:1029A000FE0000004FEA400C0CF1807CBCF17E4F31
:1029B00028BF7047B0F1C04000F05FB990EA010F46
:1029C0000CEAD11348BF42F48072624538BF6345B8
:1029D00007D213F47F0F16D080EA010000F0004008
:1029E000704710B500F003F9097EFC3E00F005B811
:1029F00080EA010000F00040704780EA010000F02A
:102A0000004000F03AB912F47F0F04BF024870474B
:102A100080EA010000F031B90000C07F41000B0ED8
:102A2000D3F19E0208D950F400034FEA032323FA9E
:102A300002F048BF4042704710B500F0D8F800BF20
:102A400049922480002070476FF0004282EA200003
:102A500070470000C10DD1F19E0206DB4FEA002352
:102A600043F0004323FA02F07047004207D54FEAD3
:102A70004001B1F1FE4F02D24FF00000704710B597
:102A800000F0B5F849922480002070476FEA2000DA
:102A90007047000010F0004148BF4042B0FA80F398
:102AA00010FA03F2C3F19D030BD051EAC35101EBBD
:102AB0001220530638BF704700F1010008BF20F014
:102AC00001007047B0FA80F310FA03F2C3F19D03DE
:102AD0000AD0D90501EB1220530638BF704700F128
:102AE000010008BF20F00100704700004FF47F0C88
:102AF0001CEAD0121EBF1CEAD11392EA0C0F93EA13
:102B00000C0F00F0478090EA010F48BF42F480723A
:102B10004FF0004C4CEA00204CEA012102EB03028A
:102B2000A0FB0113A2F50002002918BF43F0010326
:102B30005B0028BF4FEA330342EB22425FEA132CCB
:102B40004CEBC2502EBFBCEB436FB2F57C0F70470D
:102B50004FEA036CBCF1004F08BF20F00100B2F552
:102B60007C0F38BF70470BD582F0FF0212F5803F13
:102B7000C8BF704700F1C040D8BF00F000407047A8
:102B800000F5000C5FEA4C0C48BF7047B0F1C04044
:102B900000F073B890EA010F0CEAD11348BF42F479
:102BA0008072624538BF634504D280EA010000F0BC
:102BB0000040704710B500F01AF800BF8900013ED0
:102BC00000F007B800F009B85FEA410C5FEA1C6C3E
:102BD00008D080EA010000F050B85FEA400C5FEADC
:102BE0001C6CF6D14FF00040A0F5800070470EF14C
:102BF000020E2EF0030E5EF8044B244204D44FEA7A
:102C00004102B2F17F4F11D84FEA4003B3F17F4F39
:102C10000CD80ED14FEAD07CB2F17F4F0CEB4C0CAC
:102C20000CF1020C08BF4CEBD17C04E04FF0080C17
:102C300001E04FEAD17C0CEB4C0324FA03F404F0DE
:102C40000704B4F1040C06D20EEB840CBDE810406E
:102C50004CF0010C6047DFE80CF0070802024FF06F
:102C60000040A0F5800010BD0846420018BFD2F118
:102C7000807288BF00F0004010BDFF2141EAD050B3
:102C8000C005704780F0004090EA010F7FF5A9ADC4
:102C900081F0004100F007B890EA010F48BF81F0D1
:102CA00000413FF59EAD421A04D882F00042A0EBED
:102CB000020011444FEAD0524FF07F4C1CEA410F02
:102CC000A2EBD15318BF9CEA026F4AD04FF0004CE0
:102CD0004CEA00204CEA012121FA03FCB0EB0C0C79
:102CE0000FD412F0FE0F36D05FEA4C001DD5001253
:102CF00040EBC25038BF70471CF03F0F18BF704701
:102D00000BE0A2F101025FEA1C2040EBC25038BF89
:102D100070471CF07F0F18BF7047C3F12003994024
:102D200014BF401E20F00100704780084FEA1223B4
:102D300008BF7047B0FA80FCA2EB0C02CCF1280C63
:102D400060FA0CF093EA122F04BF00EBC2507047F8
:102D50004FEAC3707047130A5FEADC1008BF704780
:102D6000F6E79CEA026F04D010EA5C0F08BF00206F
:102D7000704710B5FFF73BFF40DFF63E81F00040A3
:102D800070470000A42D0008000000207000000023
:102D900028010008142E0008700000209006000092
:102DA0004401000800A24A040000000000000000E6
:102DB00001020304060708090000000000000000EB
:102DC0000000000000000000C80000000000F04209
:102DD000CDCCCC3D0000FA430000803F0000803F96
:102DE00000000000000000000102030401020304CF
:102DF00006070809020406080000000000000000A1
:102E000001000000000000000000000000000000C1
:042E100000000000BE
:04000005080000ED02
:00000001FF
